{
  "contractName": "TimelessNFT",
  "abi": [
    {
      "inputs": [
        {
          "internalType": "string",
          "name": "_name",
          "type": "string"
        },
        {
          "internalType": "string",
          "name": "_symbol",
          "type": "string"
        },
        {
          "internalType": "uint256",
          "name": "_royalityFee",
          "type": "uint256"
        }
      ],
      "stateMutability": "nonpayable",
      "type": "constructor"
    },
    {
      "anonymous": false,
      "inputs": [
        {
          "indexed": true,
          "internalType": "address",
          "name": "owner",
          "type": "address"
        },
        {
          "indexed": true,
          "internalType": "address",
          "name": "approved",
          "type": "address"
        },
        {
          "indexed": true,
          "internalType": "uint256",
          "name": "tokenId",
          "type": "uint256"
        }
      ],
      "name": "Approval",
      "type": "event"
    },
    {
      "anonymous": false,
      "inputs": [
        {
          "indexed": true,
          "internalType": "address",
          "name": "owner",
          "type": "address"
        },
        {
          "indexed": true,
          "internalType": "address",
          "name": "operator",
          "type": "address"
        },
        {
          "indexed": false,
          "internalType": "bool",
          "name": "approved",
          "type": "bool"
        }
      ],
      "name": "ApprovalForAll",
      "type": "event"
    },
    {
      "anonymous": false,
      "inputs": [
        {
          "indexed": true,
          "internalType": "address",
          "name": "previousOwner",
          "type": "address"
        },
        {
          "indexed": true,
          "internalType": "address",
          "name": "newOwner",
          "type": "address"
        }
      ],
      "name": "OwnershipTransferred",
      "type": "event"
    },
    {
      "anonymous": false,
      "inputs": [
        {
          "indexed": false,
          "internalType": "uint256",
          "name": "id",
          "type": "uint256"
        },
        {
          "indexed": true,
          "internalType": "address",
          "name": "owner",
          "type": "address"
        },
        {
          "indexed": false,
          "internalType": "uint256",
          "name": "cost",
          "type": "uint256"
        },
        {
          "indexed": false,
          "internalType": "string",
          "name": "metadataURI",
          "type": "string"
        },
        {
          "indexed": false,
          "internalType": "uint256",
          "name": "timestamp",
          "type": "uint256"
        }
      ],
      "name": "Sale",
      "type": "event"
    },
    {
      "anonymous": false,
      "inputs": [
        {
          "indexed": true,
          "internalType": "address",
          "name": "from",
          "type": "address"
        },
        {
          "indexed": true,
          "internalType": "address",
          "name": "to",
          "type": "address"
        },
        {
          "indexed": true,
          "internalType": "uint256",
          "name": "tokenId",
          "type": "uint256"
        }
      ],
      "name": "Transfer",
      "type": "event"
    },
    {
      "inputs": [
        {
          "internalType": "address",
          "name": "to",
          "type": "address"
        },
        {
          "internalType": "uint256",
          "name": "tokenId",
          "type": "uint256"
        }
      ],
      "name": "approve",
      "outputs": [],
      "stateMutability": "nonpayable",
      "type": "function"
    },
    {
      "inputs": [],
      "name": "artist",
      "outputs": [
        {
          "internalType": "address",
          "name": "",
          "type": "address"
        }
      ],
      "stateMutability": "view",
      "type": "function",
      "constant": true
    },
    {
      "inputs": [
        {
          "internalType": "address",
          "name": "owner",
          "type": "address"
        }
      ],
      "name": "balanceOf",
      "outputs": [
        {
          "internalType": "uint256",
          "name": "",
          "type": "uint256"
        }
      ],
      "stateMutability": "view",
      "type": "function",
      "constant": true
    },
    {
      "inputs": [],
      "name": "cost",
      "outputs": [
        {
          "internalType": "uint256",
          "name": "",
          "type": "uint256"
        }
      ],
      "stateMutability": "view",
      "type": "function",
      "constant": true
    },
    {
      "inputs": [
        {
          "internalType": "uint256",
          "name": "tokenId",
          "type": "uint256"
        }
      ],
      "name": "getApproved",
      "outputs": [
        {
          "internalType": "address",
          "name": "",
          "type": "address"
        }
      ],
      "stateMutability": "view",
      "type": "function",
      "constant": true
    },
    {
      "inputs": [
        {
          "internalType": "uint256",
          "name": "",
          "type": "uint256"
        }
      ],
      "name": "holderOf",
      "outputs": [
        {
          "internalType": "address",
          "name": "",
          "type": "address"
        }
      ],
      "stateMutability": "view",
      "type": "function",
      "constant": true
    },
    {
      "inputs": [
        {
          "internalType": "address",
          "name": "owner",
          "type": "address"
        },
        {
          "internalType": "address",
          "name": "operator",
          "type": "address"
        }
      ],
      "name": "isApprovedForAll",
      "outputs": [
        {
          "internalType": "bool",
          "name": "",
          "type": "bool"
        }
      ],
      "stateMutability": "view",
      "type": "function",
      "constant": true
    },
    {
      "inputs": [],
      "name": "name",
      "outputs": [
        {
          "internalType": "string",
          "name": "",
          "type": "string"
        }
      ],
      "stateMutability": "view",
      "type": "function",
      "constant": true
    },
    {
      "inputs": [],
      "name": "owner",
      "outputs": [
        {
          "internalType": "address",
          "name": "",
          "type": "address"
        }
      ],
      "stateMutability": "view",
      "type": "function",
      "constant": true
    },
    {
      "inputs": [
        {
          "internalType": "uint256",
          "name": "tokenId",
          "type": "uint256"
        }
      ],
      "name": "ownerOf",
      "outputs": [
        {
          "internalType": "address",
          "name": "",
          "type": "address"
        }
      ],
      "stateMutability": "view",
      "type": "function",
      "constant": true
    },
    {
      "inputs": [],
      "name": "renounceOwnership",
      "outputs": [],
      "stateMutability": "nonpayable",
      "type": "function"
    },
    {
      "inputs": [],
      "name": "royalityFee",
      "outputs": [
        {
          "internalType": "uint256",
          "name": "",
          "type": "uint256"
        }
      ],
      "stateMutability": "view",
      "type": "function",
      "constant": true
    },
    {
      "inputs": [
        {
          "internalType": "address",
          "name": "from",
          "type": "address"
        },
        {
          "internalType": "address",
          "name": "to",
          "type": "address"
        },
        {
          "internalType": "uint256",
          "name": "tokenId",
          "type": "uint256"
        }
      ],
      "name": "safeTransferFrom",
      "outputs": [],
      "stateMutability": "payable",
      "type": "function",
      "payable": true
    },
    {
      "inputs": [
        {
          "internalType": "address",
          "name": "from",
          "type": "address"
        },
        {
          "internalType": "address",
          "name": "to",
          "type": "address"
        },
        {
          "internalType": "uint256",
          "name": "tokenId",
          "type": "uint256"
        },
        {
          "internalType": "bytes",
          "name": "_data",
          "type": "bytes"
        }
      ],
      "name": "safeTransferFrom",
      "outputs": [],
      "stateMutability": "payable",
      "type": "function",
      "payable": true
    },
    {
      "inputs": [
        {
          "internalType": "address",
          "name": "operator",
          "type": "address"
        },
        {
          "internalType": "bool",
          "name": "approved",
          "type": "bool"
        }
      ],
      "name": "setApprovalForAll",
      "outputs": [],
      "stateMutability": "nonpayable",
      "type": "function"
    },
    {
      "inputs": [],
      "name": "supply",
      "outputs": [
        {
          "internalType": "uint256",
          "name": "",
          "type": "uint256"
        }
      ],
      "stateMutability": "view",
      "type": "function",
      "constant": true
    },
    {
      "inputs": [
        {
          "internalType": "bytes4",
          "name": "interfaceId",
          "type": "bytes4"
        }
      ],
      "name": "supportsInterface",
      "outputs": [
        {
          "internalType": "bool",
          "name": "",
          "type": "bool"
        }
      ],
      "stateMutability": "view",
      "type": "function",
      "constant": true
    },
    {
      "inputs": [],
      "name": "symbol",
      "outputs": [
        {
          "internalType": "string",
          "name": "",
          "type": "string"
        }
      ],
      "stateMutability": "view",
      "type": "function",
      "constant": true
    },
    {
      "inputs": [
        {
          "internalType": "uint256",
          "name": "index",
          "type": "uint256"
        }
      ],
      "name": "tokenByIndex",
      "outputs": [
        {
          "internalType": "uint256",
          "name": "",
          "type": "uint256"
        }
      ],
      "stateMutability": "view",
      "type": "function",
      "constant": true
    },
    {
      "inputs": [
        {
          "internalType": "address",
          "name": "owner",
          "type": "address"
        },
        {
          "internalType": "uint256",
          "name": "index",
          "type": "uint256"
        }
      ],
      "name": "tokenOfOwnerByIndex",
      "outputs": [
        {
          "internalType": "uint256",
          "name": "",
          "type": "uint256"
        }
      ],
      "stateMutability": "view",
      "type": "function",
      "constant": true
    },
    {
      "inputs": [
        {
          "internalType": "uint256",
          "name": "tokenId",
          "type": "uint256"
        }
      ],
      "name": "tokenURI",
      "outputs": [
        {
          "internalType": "string",
          "name": "",
          "type": "string"
        }
      ],
      "stateMutability": "view",
      "type": "function",
      "constant": true
    },
    {
      "inputs": [],
      "name": "totalSupply",
      "outputs": [
        {
          "internalType": "uint256",
          "name": "",
          "type": "uint256"
        }
      ],
      "stateMutability": "view",
      "type": "function",
      "constant": true
    },
    {
      "inputs": [],
      "name": "totalTx",
      "outputs": [
        {
          "internalType": "uint256",
          "name": "",
          "type": "uint256"
        }
      ],
      "stateMutability": "view",
      "type": "function",
      "constant": true
    },
    {
      "inputs": [
        {
          "internalType": "address",
          "name": "from",
          "type": "address"
        },
        {
          "internalType": "address",
          "name": "to",
          "type": "address"
        },
        {
          "internalType": "uint256",
          "name": "tokenId",
          "type": "uint256"
        }
      ],
      "name": "transferFrom",
      "outputs": [],
      "stateMutability": "payable",
      "type": "function",
      "payable": true
    },
    {
      "inputs": [
        {
          "internalType": "address",
          "name": "newOwner",
          "type": "address"
        }
      ],
      "name": "transferOwnership",
      "outputs": [],
      "stateMutability": "nonpayable",
      "type": "function"
    },
    {
      "inputs": [
        {
          "internalType": "string",
          "name": "title",
          "type": "string"
        },
        {
          "internalType": "string",
          "name": "description",
          "type": "string"
        },
        {
          "internalType": "string",
          "name": "metadataURI",
          "type": "string"
        },
        {
          "internalType": "uint256",
          "name": "salesPrice",
          "type": "uint256"
        }
      ],
      "name": "payToMint",
      "outputs": [],
      "stateMutability": "payable",
      "type": "function",
      "payable": true
    },
    {
      "inputs": [
        {
          "internalType": "uint256",
          "name": "id",
          "type": "uint256"
        }
      ],
      "name": "payToBuy",
      "outputs": [],
      "stateMutability": "payable",
      "type": "function",
      "payable": true
    },
    {
      "inputs": [
        {
          "internalType": "uint256",
          "name": "id",
          "type": "uint256"
        },
        {
          "internalType": "uint256",
          "name": "newPrice",
          "type": "uint256"
        }
      ],
      "name": "changePrice",
      "outputs": [
        {
          "internalType": "bool",
          "name": "",
          "type": "bool"
        }
      ],
      "stateMutability": "nonpayable",
      "type": "function"
    },
    {
      "inputs": [],
      "name": "getAllNFTs",
      "outputs": [
        {
          "components": [
            {
              "internalType": "uint256",
              "name": "id",
              "type": "uint256"
            },
            {
              "internalType": "address",
              "name": "owner",
              "type": "address"
            },
            {
              "internalType": "uint256",
              "name": "cost",
              "type": "uint256"
            },
            {
              "internalType": "string",
              "name": "title",
              "type": "string"
            },
            {
              "internalType": "string",
              "name": "description",
              "type": "string"
            },
            {
              "internalType": "string",
              "name": "metadataURI",
              "type": "string"
            },
            {
              "internalType": "uint256",
              "name": "timestamp",
              "type": "uint256"
            }
          ],
          "internalType": "struct TimelessNFT.TransactionStruct[]",
          "name": "",
          "type": "tuple[]"
        }
      ],
      "stateMutability": "view",
      "type": "function",
      "constant": true
    },
    {
      "inputs": [
        {
          "internalType": "uint256",
          "name": "id",
          "type": "uint256"
        }
      ],
      "name": "getNFT",
      "outputs": [
        {
          "components": [
            {
              "internalType": "uint256",
              "name": "id",
              "type": "uint256"
            },
            {
              "internalType": "address",
              "name": "owner",
              "type": "address"
            },
            {
              "internalType": "uint256",
              "name": "cost",
              "type": "uint256"
            },
            {
              "internalType": "string",
              "name": "title",
              "type": "string"
            },
            {
              "internalType": "string",
              "name": "description",
              "type": "string"
            },
            {
              "internalType": "string",
              "name": "metadataURI",
              "type": "string"
            },
            {
              "internalType": "uint256",
              "name": "timestamp",
              "type": "uint256"
            }
          ],
          "internalType": "struct TimelessNFT.TransactionStruct",
          "name": "",
          "type": "tuple"
        }
      ],
      "stateMutability": "view",
      "type": "function",
      "constant": true
    },
    {
      "inputs": [],
      "name": "getAllTransactions",
      "outputs": [
        {
          "components": [
            {
              "internalType": "uint256",
              "name": "id",
              "type": "uint256"
            },
            {
              "internalType": "address",
              "name": "owner",
              "type": "address"
            },
            {
              "internalType": "uint256",
              "name": "cost",
              "type": "uint256"
            },
            {
              "internalType": "string",
              "name": "title",
              "type": "string"
            },
            {
              "internalType": "string",
              "name": "description",
              "type": "string"
            },
            {
              "internalType": "string",
              "name": "metadataURI",
              "type": "string"
            },
            {
              "internalType": "uint256",
              "name": "timestamp",
              "type": "uint256"
            }
          ],
          "internalType": "struct TimelessNFT.TransactionStruct[]",
          "name": "",
          "type": "tuple[]"
        }
      ],
      "stateMutability": "view",
      "type": "function",
      "constant": true
    }
  ],
  "bytecode": "0x60806040526000600f556000601055662386f26fc100006011553480156200002657600080fd5b506040516200588d3803806200588d83398181016040528101906200004c919062000408565b828281600090805190602001906200006692919062000180565b5080600190805190602001906200007f92919062000180565b505050620000a262000096620000b260201b60201c565b620000ba60201b60201c565b80600e8190555050505062000507565b600033905090565b6000600a60009054906101000a900473ffffffffffffffffffffffffffffffffffffffff16905081600a60006101000a81548173ffffffffffffffffffffffffffffffffffffffff021916908373ffffffffffffffffffffffffffffffffffffffff1602179055508173ffffffffffffffffffffffffffffffffffffffff168173ffffffffffffffffffffffffffffffffffffffff167f8be0079c531659141344cd1fd0a4f28419497f9722a3daafe3b4186f6b6457e060405160405180910390a35050565b8280546200018e90620004d1565b90600052602060002090601f016020900481019282620001b25760008555620001fe565b82601f10620001cd57805160ff1916838001178555620001fe565b82800160010185558215620001fe579182015b82811115620001fd578251825591602001919060010190620001e0565b5b5090506200020d919062000211565b5090565b5b808211156200022c57600081600090555060010162000212565b5090565b6000604051905090565b600080fd5b600080fd5b600080fd5b600080fd5b6000601f19601f8301169050919050565b7f4e487b7100000000000000000000000000000000000000000000000000000000600052604160045260246000fd5b62000299826200024e565b810181811067ffffffffffffffff82111715620002bb57620002ba6200025f565b5b80604052505050565b6000620002d062000230565b9050620002de82826200028e565b919050565b600067ffffffffffffffff8211156200030157620003006200025f565b5b6200030c826200024e565b9050602081019050919050565b60005b83811015620003395780820151818401526020810190506200031c565b8381111562000349576000848401525b50505050565b6000620003666200036084620002e3565b620002c4565b90508281526020810184848401111562000385576200038462000249565b5b6200039284828562000319565b509392505050565b600082601f830112620003b257620003b162000244565b5b8151620003c48482602086016200034f565b91505092915050565b6000819050919050565b620003e281620003cd565b8114620003ee57600080fd5b50565b6000815190506200040281620003d7565b92915050565b6000806000606084860312156200042457620004236200023a565b5b600084015167ffffffffffffffff8111156200044557620004446200023f565b5b62000453868287016200039a565b935050602084015167ffffffffffffffff8111156200047757620004766200023f565b5b62000485868287016200039a565b92505060406200049886828701620003f1565b9150509250925092565b7f4e487b7100000000000000000000000000000000000000000000000000000000600052602260045260246000fd5b60006002820490506001821680620004ea57607f821691505b60208210811415620005015762000500620004a2565b5b50919050565b61537680620005176000396000f3fe6080604052600436106101d85760003560e01c80636352211e11610102578063a22cb46511610095578063dbacc23711610064578063dbacc237146106a5578063e0391b09146106e2578063e985e9c51461070d578063f2fde38b1461074a576101d8565b8063a22cb465146105e6578063b3de019c1461060f578063b88d4fde1461064c578063c87b56dd14610668576101d8565b8063799c0c1e116100d1578063799c0c1e146105585780638da5cb5b1461057457806395d89b411461059f5780639ba4b017146105ca576101d8565b80636352211e1461049c57806370a08231146104d9578063715018a6146105165780637220cf391461052d576101d8565b806323b872dd1161017a57806342842e0e1161014957806342842e0e146103db57806343bc1612146103f75780634f6ccce714610422578063576f7ea71461045f576101d8565b806323b872dd1461032c57806327506f53146103485780632f745c5914610373578063326bb4ad146103b0576101d8565b8063081812fc116101b6578063081812fc14610270578063095ea7b3146102ad57806313faede6146102d657806318160ddd14610301576101d8565b806301ffc9a7146101dd578063047fc9aa1461021a57806306fdde0314610245575b600080fd5b3480156101e957600080fd5b5061020460048036038101906101ff919061380f565b610773565b6040516102119190613857565b60405180910390f35b34801561022657600080fd5b5061022f6107ed565b60405161023c919061388b565b60405180910390f35b34801561025157600080fd5b5061025a6107f3565b604051610267919061393f565b60405180910390f35b34801561027c57600080fd5b506102976004803603810190610292919061398d565b610885565b6040516102a491906139fb565b60405180910390f35b3480156102b957600080fd5b506102d460048036038101906102cf9190613a42565b61090a565b005b3480156102e257600080fd5b506102eb610a22565b6040516102f8919061388b565b60405180910390f35b34801561030d57600080fd5b50610316610a28565b604051610323919061388b565b60405180910390f35b61034660048036038101906103419190613a82565b610a35565b005b34801561035457600080fd5b5061035d610a95565b60405161036a9190613ca9565b60405180910390f35b34801561037f57600080fd5b5061039a60048036038101906103959190613a42565b610d1e565b6040516103a7919061388b565b60405180910390f35b3480156103bc57600080fd5b506103c5610dc3565b6040516103d2919061388b565b60405180910390f35b6103f560048036038101906103f09190613a82565b610dc9565b005b34801561040357600080fd5b5061040c610de9565b60405161041991906139fb565b60405180910390f35b34801561042e57600080fd5b506104496004803603810190610444919061398d565b610e0f565b604051610456919061388b565b60405180910390f35b34801561046b57600080fd5b506104866004803603810190610481919061398d565b610e80565b6040516104939190613d75565b60405180910390f35b3480156104a857600080fd5b506104c360048036038101906104be919061398d565b6110f2565b6040516104d091906139fb565b60405180910390f35b3480156104e557600080fd5b5061050060048036038101906104fb9190613d97565b6111a4565b60405161050d919061388b565b60405180910390f35b34801561052257600080fd5b5061052b61125c565b005b34801561053957600080fd5b50610542611270565b60405161054f919061388b565b60405180910390f35b610572600480360381019061056d9190613ef9565b611276565b005b34801561058057600080fd5b506105896115f3565b60405161059691906139fb565b60405180910390f35b3480156105ab57600080fd5b506105b461161d565b6040516105c1919061393f565b60405180910390f35b6105e460048036038101906105df919061398d565b6116af565b005b3480156105f257600080fd5b5061060d60048036038101906106089190613fe0565b611ce9565b005b34801561061b57600080fd5b5061063660048036038101906106319190614020565b611cff565b6040516106439190613857565b60405180910390f35b61066660048036038101906106619190614101565b611e42565b005b34801561067457600080fd5b5061068f600480360381019061068a919061398d565b611ea4565b60405161069c919061393f565b60405180910390f35b3480156106b157600080fd5b506106cc60048036038101906106c7919061398d565b611f4b565b6040516106d991906139fb565b60405180910390f35b3480156106ee57600080fd5b506106f7611f7e565b6040516107049190613ca9565b60405180910390f35b34801561071957600080fd5b50610734600480360381019061072f9190614184565b612207565b6040516107419190613857565b60405180910390f35b34801561075657600080fd5b50610771600480360381019061076c9190613d97565b61229b565b005b60007f780e9d63000000000000000000000000000000000000000000000000000000007bffffffffffffffffffffffffffffffffffffffffffffffffffffffff1916827bffffffffffffffffffffffffffffffffffffffffffffffffffffffff191614806107e657506107e58261231f565b5b9050919050565b600f5481565b606060008054610802906141f3565b80601f016020809104026020016040519081016040528092919081815260200182805461082e906141f3565b801561087b5780601f106108505761010080835404028352916020019161087b565b820191906000526020600020905b81548152906001019060200180831161085e57829003601f168201915b5050505050905090565b600061089082612401565b6108cf576040517f08c379a00000000000000000000000000000000000000000000000000000000081526004016108c690614297565b60405180910390fd5b6004600083815260200190815260200160002060009054906101000a900473ffffffffffffffffffffffffffffffffffffffff169050919050565b6000610915826110f2565b90508073ffffffffffffffffffffffffffffffffffffffff168373ffffffffffffffffffffffffffffffffffffffff161415610986576040517f08c379a000000000000000000000000000000000000000000000000000000000815260040161097d90614329565b60405180910390fd5b8073ffffffffffffffffffffffffffffffffffffffff166109a561246d565b73ffffffffffffffffffffffffffffffffffffffff1614806109d457506109d3816109ce61246d565b612207565b5b610a13576040517f08c379a0000000000000000000000000000000000000000000000000000000008152600401610a0a906143bb565b60405180910390fd5b610a1d8383612475565b505050565b60115481565b6000600880549050905090565b610a46610a4061246d565b8261252e565b610a85576040517f08c379a0000000000000000000000000000000000000000000000000000000008152600401610a7c9061444d565b60405180910390fd5b610a9083838361260c565b505050565b60606012805480602002602001604051908101604052809291908181526020016000905b82821015610d1557838290600052602060002090600702016040518060e0016040529081600082015481526020016001820160009054906101000a900473ffffffffffffffffffffffffffffffffffffffff1673ffffffffffffffffffffffffffffffffffffffff1673ffffffffffffffffffffffffffffffffffffffff16815260200160028201548152602001600382018054610b56906141f3565b80601f0160208091040260200160405190810160405280929190818152602001828054610b82906141f3565b8015610bcf5780601f10610ba457610100808354040283529160200191610bcf565b820191906000526020600020905b815481529060010190602001808311610bb257829003601f168201915b50505050508152602001600482018054610be8906141f3565b80601f0160208091040260200160405190810160405280929190818152602001828054610c14906141f3565b8015610c615780601f10610c3657610100808354040283529160200191610c61565b820191906000526020600020905b815481529060010190602001808311610c4457829003601f168201915b50505050508152602001600582018054610c7a906141f3565b80601f0160208091040260200160405190810160405280929190818152602001828054610ca6906141f3565b8015610cf35780601f10610cc857610100808354040283529160200191610cf3565b820191906000526020600020905b815481529060010190602001808311610cd657829003601f168201915b5050505050815260200160068201548152505081526020019060010190610ab9565b50505050905090565b6000610d29836111a4565b8210610d6a576040517f08c379a0000000000000000000000000000000000000000000000000000000008152600401610d61906144df565b60405180910390fd5b600660008473ffffffffffffffffffffffffffffffffffffffff1673ffffffffffffffffffffffffffffffffffffffff168152602001908152602001600020600083815260200190815260200160002054905092915050565b600e5481565b610de483838360405180602001604052806000815250611e42565b505050565b600d60009054906101000a900473ffffffffffffffffffffffffffffffffffffffff1681565b6000610e19610a28565b8210610e5a576040517f08c379a0000000000000000000000000000000000000000000000000000000008152600401610e5190614571565b60405180910390fd5b60088281548110610e6e57610e6d614591565b5b90600052602060002001549050919050565b610e886136ad565b6013600183610e9791906145ef565b81548110610ea857610ea7614591565b5b90600052602060002090600702016040518060e0016040529081600082015481526020016001820160009054906101000a900473ffffffffffffffffffffffffffffffffffffffff1673ffffffffffffffffffffffffffffffffffffffff1673ffffffffffffffffffffffffffffffffffffffff16815260200160028201548152602001600382018054610f3b906141f3565b80601f0160208091040260200160405190810160405280929190818152602001828054610f67906141f3565b8015610fb45780601f10610f8957610100808354040283529160200191610fb4565b820191906000526020600020905b815481529060010190602001808311610f9757829003601f168201915b50505050508152602001600482018054610fcd906141f3565b80601f0160208091040260200160405190810160405280929190818152602001828054610ff9906141f3565b80156110465780601f1061101b57610100808354040283529160200191611046565b820191906000526020600020905b81548152906001019060200180831161102957829003601f168201915b5050505050815260200160058201805461105f906141f3565b80601f016020809104026020016040519081016040528092919081815260200182805461108b906141f3565b80156110d85780601f106110ad576101008083540402835291602001916110d8565b820191906000526020600020905b8154815290600101906020018083116110bb57829003601f168201915b505050505081526020016006820154815250509050919050565b6000806002600084815260200190815260200160002060009054906101000a900473ffffffffffffffffffffffffffffffffffffffff169050600073ffffffffffffffffffffffffffffffffffffffff168173ffffffffffffffffffffffffffffffffffffffff16141561119b576040517f08c379a000000000000000000000000000000000000000000000000000000000815260040161119290614695565b60405180910390fd5b80915050919050565b60008073ffffffffffffffffffffffffffffffffffffffff168273ffffffffffffffffffffffffffffffffffffffff161415611215576040517f08c379a000000000000000000000000000000000000000000000000000000000815260040161120c90614727565b60405180910390fd5b600360008373ffffffffffffffffffffffffffffffffffffffff1673ffffffffffffffffffffffffffffffffffffffff168152602001908152602001600020549050919050565b611264612868565b61126e60006128e6565b565b60105481565b6011543410156112bb576040517f08c379a00000000000000000000000000000000000000000000000000000000081526004016112b290614793565b60405180910390fd5b6000600b836040516112cd91906147ef565b908152602001604051809103902060009054906101000a900460ff1660ff161461132c576040517f08c379a000000000000000000000000000000000000000000000000000000000815260040161132390614852565b60405180910390fd5b6113346115f3565b73ffffffffffffffffffffffffffffffffffffffff163373ffffffffffffffffffffffffffffffffffffffff1614156113a2576040517f08c379a0000000000000000000000000000000000000000000000000000000008152600401611399906148be565b60405180910390fd5b6113b36113ad6115f3565b346129ac565b600f60008154809291906113c6906148de565b919050555060136040518060e00160405280600f5481526020013373ffffffffffffffffffffffffffffffffffffffff1681526020018381526020018681526020018581526020018481526020014281525090806001815401808255809150506001900390600052602060002090600702016000909190919091506000820151816000015560208201518160010160006101000a81548173ffffffffffffffffffffffffffffffffffffffff021916908373ffffffffffffffffffffffffffffffffffffffff1602179055506040820151816002015560608201518160030190805190602001906114b8929190613700565b5060808201518160040190805190602001906114d5929190613700565b5060a08201518160050190805190602001906114f2929190613700565b5060c0820151816006015550503373ffffffffffffffffffffffffffffffffffffffff167fb9508407a6eccb191d8da3286f4173697cf95604e9ea192fe5ab7c862b5221f6600f5434854260405161154d9493929190614927565b60405180910390a261156133600f54612a27565b6001600b8360405161157391906147ef565b908152602001604051809103902060006101000a81548160ff021916908360ff16021790555033600c6000600f54815260200190815260200160002060006101000a81548173ffffffffffffffffffffffffffffffffffffffff021916908373ffffffffffffffffffffffffffffffffffffffff16021790555050505050565b6000600a60009054906101000a900473ffffffffffffffffffffffffffffffffffffffff16905090565b60606001805461162c906141f3565b80601f0160208091040260200160405190810160405280929190818152602001828054611658906141f3565b80156116a55780601f1061167a576101008083540402835291602001916116a5565b820191906000526020600020905b81548152906001019060200180831161168857829003601f168201915b5050505050905090565b60136001826116be91906145ef565b815481106116cf576116ce614591565b5b906000526020600020906007020160020154341015611723576040517f08c379a000000000000000000000000000000000000000000000000000000000815260040161171a906149bf565b60405180910390fd5b601360018261173291906145ef565b8154811061174357611742614591565b5b906000526020600020906007020160010160009054906101000a900473ffffffffffffffffffffffffffffffffffffffff1673ffffffffffffffffffffffffffffffffffffffff163373ffffffffffffffffffffffffffffffffffffffff1614156117e3576040517f08c379a00000000000000000000000000000000000000000000000000000000081526004016117da90614a2b565b60405180910390fd5b60006064600e54346117f59190614a4b565b6117ff9190614ad4565b905061181261180c6115f3565b826129ac565b611878601360018461182491906145ef565b8154811061183557611834614591565b5b906000526020600020906007020160010160009054906101000a900473ffffffffffffffffffffffffffffffffffffffff16823461187391906145ef565b6129ac565b6010600081548092919061188b906148de565b919050555060126040518060e0016040528060105481526020013373ffffffffffffffffffffffffffffffffffffffff16815260200134815260200160136001866118d691906145ef565b815481106118e7576118e6614591565b5b90600052602060002090600702016003018054611903906141f3565b80601f016020809104026020016040519081016040528092919081815260200182805461192f906141f3565b801561197c5780601f106119515761010080835404028352916020019161197c565b820191906000526020600020905b81548152906001019060200180831161195f57829003601f168201915b50505050508152602001601360018661199591906145ef565b815481106119a6576119a5614591565b5b906000526020600020906007020160040180546119c2906141f3565b80601f01602080910402602001604051908101604052809291908181526020018280546119ee906141f3565b8015611a3b5780601f10611a1057610100808354040283529160200191611a3b565b820191906000526020600020905b815481529060010190602001808311611a1e57829003601f168201915b505050505081526020016013600186611a5491906145ef565b81548110611a6557611a64614591565b5b90600052602060002090600702016005018054611a81906141f3565b80601f0160208091040260200160405190810160405280929190818152602001828054611aad906141f3565b8015611afa5780601f10611acf57610100808354040283529160200191611afa565b820191906000526020600020905b815481529060010190602001808311611add57829003601f168201915b505050505081526020014281525090806001815401808255809150506001900390600052602060002090600702016000909190919091506000820151816000015560208201518160010160006101000a81548173ffffffffffffffffffffffffffffffffffffffff021916908373ffffffffffffffffffffffffffffffffffffffff160217905550604082015181600201556060820151816003019080519060200190611ba8929190613700565b506080820151816004019080519060200190611bc5929190613700565b5060a0820151816005019080519060200190611be2929190613700565b5060c0820151816006015550503373ffffffffffffffffffffffffffffffffffffffff167fb9508407a6eccb191d8da3286f4173697cf95604e9ea192fe5ab7c862b5221f6601054346013600187611c3a91906145ef565b81548110611c4b57611c4a614591565b5b906000526020600020906007020160050142604051611c6d9493929190614b9a565b60405180910390a2336013600184611c8591906145ef565b81548110611c9657611c95614591565b5b906000526020600020906007020160010160006101000a81548173ffffffffffffffffffffffffffffffffffffffff021916908373ffffffffffffffffffffffffffffffffffffffff1602179055505050565b611cfb611cf461246d565b8383612a45565b5050565b6000808211611d43576040517f08c379a0000000000000000000000000000000000000000000000000000000008152600401611d3a90614c32565b60405180910390fd5b6013600184611d5291906145ef565b81548110611d6357611d62614591565b5b906000526020600020906007020160010160009054906101000a900473ffffffffffffffffffffffffffffffffffffffff1673ffffffffffffffffffffffffffffffffffffffff163373ffffffffffffffffffffffffffffffffffffffff1614611e02576040517f08c379a0000000000000000000000000000000000000000000000000000000008152600401611df990614a2b565b60405180910390fd5b816013600185611e1291906145ef565b81548110611e2357611e22614591565b5b9060005260206000209060070201600201819055506001905092915050565b611e53611e4d61246d565b8361252e565b611e92576040517f08c379a0000000000000000000000000000000000000000000000000000000008152600401611e899061444d565b60405180910390fd5b611e9e84848484612bb2565b50505050565b6060611eaf82612401565b611eee576040517f08c379a0000000000000000000000000000000000000000000000000000000008152600401611ee590614cc4565b60405180910390fd5b6000611ef8612c0e565b90506000815111611f185760405180602001604052806000815250611f43565b80611f2284612c25565b604051602001611f33929190614ce4565b6040516020818303038152906040525b915050919050565b600c6020528060005260406000206000915054906101000a900473ffffffffffffffffffffffffffffffffffffffff1681565b60606013805480602002602001604051908101604052809291908181526020016000905b828210156121fe57838290600052602060002090600702016040518060e0016040529081600082015481526020016001820160009054906101000a900473ffffffffffffffffffffffffffffffffffffffff1673ffffffffffffffffffffffffffffffffffffffff1673ffffffffffffffffffffffffffffffffffffffff1681526020016002820154815260200160038201805461203f906141f3565b80601f016020809104026020016040519081016040528092919081815260200182805461206b906141f3565b80156120b85780601f1061208d576101008083540402835291602001916120b8565b820191906000526020600020905b81548152906001019060200180831161209b57829003601f168201915b505050505081526020016004820180546120d1906141f3565b80601f01602080910402602001604051908101604052809291908181526020018280546120fd906141f3565b801561214a5780601f1061211f5761010080835404028352916020019161214a565b820191906000526020600020905b81548152906001019060200180831161212d57829003601f168201915b50505050508152602001600582018054612163906141f3565b80601f016020809104026020016040519081016040528092919081815260200182805461218f906141f3565b80156121dc5780601f106121b1576101008083540402835291602001916121dc565b820191906000526020600020905b8154815290600101906020018083116121bf57829003601f168201915b5050505050815260200160068201548152505081526020019060010190611fa2565b50505050905090565b6000600560008473ffffffffffffffffffffffffffffffffffffffff1673ffffffffffffffffffffffffffffffffffffffff16815260200190815260200160002060008373ffffffffffffffffffffffffffffffffffffffff1673ffffffffffffffffffffffffffffffffffffffff16815260200190815260200160002060009054906101000a900460ff16905092915050565b6122a3612868565b600073ffffffffffffffffffffffffffffffffffffffff168173ffffffffffffffffffffffffffffffffffffffff161415612313576040517f08c379a000000000000000000000000000000000000000000000000000000000815260040161230a90614d7a565b60405180910390fd5b61231c816128e6565b50565b60007f80ac58cd000000000000000000000000000000000000000000000000000000007bffffffffffffffffffffffffffffffffffffffffffffffffffffffff1916827bffffffffffffffffffffffffffffffffffffffffffffffffffffffff191614806123ea57507f5b5e139f000000000000000000000000000000000000000000000000000000007bffffffffffffffffffffffffffffffffffffffffffffffffffffffff1916827bffffffffffffffffffffffffffffffffffffffffffffffffffffffff1916145b806123fa57506123f982612cfd565b5b9050919050565b60008073ffffffffffffffffffffffffffffffffffffffff166002600084815260200190815260200160002060009054906101000a900473ffffffffffffffffffffffffffffffffffffffff1673ffffffffffffffffffffffffffffffffffffffff1614159050919050565b600033905090565b816004600083815260200190815260200160002060006101000a81548173ffffffffffffffffffffffffffffffffffffffff021916908373ffffffffffffffffffffffffffffffffffffffff160217905550808273ffffffffffffffffffffffffffffffffffffffff166124e8836110f2565b73ffffffffffffffffffffffffffffffffffffffff167f8c5be1e5ebec7d5bd14f71427d1e84f3dd0314c0f7b2291e5b200ac8c7c3b92560405160405180910390a45050565b600061253982612401565b612578576040517f08c379a000000000000000000000000000000000000000000000000000000000815260040161256f90614e0c565b60405180910390fd5b6000612583836110f2565b90508073ffffffffffffffffffffffffffffffffffffffff168473ffffffffffffffffffffffffffffffffffffffff1614806125f257508373ffffffffffffffffffffffffffffffffffffffff166125da84610885565b73ffffffffffffffffffffffffffffffffffffffff16145b8061260357506126028185612207565b5b91505092915050565b8273ffffffffffffffffffffffffffffffffffffffff1661262c826110f2565b73ffffffffffffffffffffffffffffffffffffffff1614612682576040517f08c379a000000000000000000000000000000000000000000000000000000000815260040161267990614e9e565b60405180910390fd5b600073ffffffffffffffffffffffffffffffffffffffff168273ffffffffffffffffffffffffffffffffffffffff1614156126f2576040517f08c379a00000000000000000000000000000000000000000000000000000000081526004016126e990614f30565b60405180910390fd5b6126fd838383612d67565b612708600082612475565b6001600360008573ffffffffffffffffffffffffffffffffffffffff1673ffffffffffffffffffffffffffffffffffffffff168152602001908152602001600020600082825461275891906145ef565b925050819055506001600360008473ffffffffffffffffffffffffffffffffffffffff1673ffffffffffffffffffffffffffffffffffffffff16815260200190815260200160002060008282546127af9190614f50565b92505081905550816002600083815260200190815260200160002060006101000a81548173ffffffffffffffffffffffffffffffffffffffff021916908373ffffffffffffffffffffffffffffffffffffffff160217905550808273ffffffffffffffffffffffffffffffffffffffff168473ffffffffffffffffffffffffffffffffffffffff167fddf252ad1be2c89b69c2b068fc378daa952ba7f163c4a11628f55a4df523b3ef60405160405180910390a4505050565b61287061246d565b73ffffffffffffffffffffffffffffffffffffffff1661288e6115f3565b73ffffffffffffffffffffffffffffffffffffffff16146128e4576040517f08c379a00000000000000000000000000000000000000000000000000000000081526004016128db90614ff2565b60405180910390fd5b565b6000600a60009054906101000a900473ffffffffffffffffffffffffffffffffffffffff16905081600a60006101000a81548173ffffffffffffffffffffffffffffffffffffffff021916908373ffffffffffffffffffffffffffffffffffffffff1602179055508173ffffffffffffffffffffffffffffffffffffffff168173ffffffffffffffffffffffffffffffffffffffff167f8be0079c531659141344cd1fd0a4f28419497f9722a3daafe3b4186f6b6457e060405160405180910390a35050565b60008273ffffffffffffffffffffffffffffffffffffffff16826040516129d290615043565b60006040518083038185875af1925050503d8060008114612a0f576040519150601f19603f3d011682016040523d82523d6000602084013e612a14565b606091505b5050905080612a2257600080fd5b505050565b612a41828260405180602001604052806000815250612e7b565b5050565b8173ffffffffffffffffffffffffffffffffffffffff168373ffffffffffffffffffffffffffffffffffffffff161415612ab4576040517f08c379a0000000000000000000000000000000000000000000000000000000008152600401612aab906150a4565b60405180910390fd5b80600560008573ffffffffffffffffffffffffffffffffffffffff1673ffffffffffffffffffffffffffffffffffffffff16815260200190815260200160002060008473ffffffffffffffffffffffffffffffffffffffff1673ffffffffffffffffffffffffffffffffffffffff16815260200190815260200160002060006101000a81548160ff0219169083151502179055508173ffffffffffffffffffffffffffffffffffffffff168373ffffffffffffffffffffffffffffffffffffffff167f17307eab39ab6107e8899845ad3d59bd9653f200f220920489ca2b5937696c3183604051612ba59190613857565b60405180910390a3505050565b612bbd84848461260c565b612bc984848484612ed6565b612c08576040517f08c379a0000000000000000000000000000000000000000000000000000000008152600401612bff90615136565b60405180910390fd5b50505050565b606060405180602001604052806000815250905090565b606060006001612c348461305e565b01905060008167ffffffffffffffff811115612c5357612c52613dce565b5b6040519080825280601f01601f191660200182016040528015612c855781602001600182028036833780820191505090505b509050600082602001820190505b600115612cf2578080600190039150507f3031323334353637383961626364656600000000000000000000000000000000600a86061a8153600a8581612cdc57612cdb614aa5565b5b0494506000851415612ced57612cf2565b612c93565b819350505050919050565b60007f01ffc9a7000000000000000000000000000000000000000000000000000000007bffffffffffffffffffffffffffffffffffffffffffffffffffffffff1916827bffffffffffffffffffffffffffffffffffffffffffffffffffffffff1916149050919050565b612d728383836131b1565b600073ffffffffffffffffffffffffffffffffffffffff168373ffffffffffffffffffffffffffffffffffffffff161415612db557612db0816131b6565b612df4565b8173ffffffffffffffffffffffffffffffffffffffff168373ffffffffffffffffffffffffffffffffffffffff1614612df357612df283826131ff565b5b5b600073ffffffffffffffffffffffffffffffffffffffff168273ffffffffffffffffffffffffffffffffffffffff161415612e3757612e328161336c565b612e76565b8273ffffffffffffffffffffffffffffffffffffffff168273ffffffffffffffffffffffffffffffffffffffff1614612e7557612e74828261343d565b5b5b505050565b612e8583836134bc565b612e926000848484612ed6565b612ed1576040517f08c379a0000000000000000000000000000000000000000000000000000000008152600401612ec890615136565b60405180910390fd5b505050565b6000612ef78473ffffffffffffffffffffffffffffffffffffffff1661368a565b15613051578373ffffffffffffffffffffffffffffffffffffffff1663150b7a02612f2061246d565b8786866040518563ffffffff1660e01b8152600401612f4294939291906151ab565b6020604051808303816000875af1925050508015612f7e57506040513d601f19601f82011682018060405250810190612f7b919061520c565b60015b613001573d8060008114612fae576040519150601f19603f3d011682016040523d82523d6000602084013e612fb3565b606091505b50600081511415612ff9576040517f08c379a0000000000000000000000000000000000000000000000000000000008152600401612ff090615136565b60405180910390fd5b805181602001fd5b63150b7a0260e01b7bffffffffffffffffffffffffffffffffffffffffffffffffffffffff1916817bffffffffffffffffffffffffffffffffffffffffffffffffffffffff191614915050613056565b600190505b949350505050565b600080600090507a184f03e93ff9f4daa797ed6e38ed64bf6a1f01000000000000000083106130bc577a184f03e93ff9f4daa797ed6e38ed64bf6a1f01000000000000000083816130b2576130b1614aa5565b5b0492506040810190505b6d04ee2d6d415b85acef810000000083106130f9576d04ee2d6d415b85acef810000000083816130ef576130ee614aa5565b5b0492506020810190505b662386f26fc10000831061312857662386f26fc10000838161311e5761311d614aa5565b5b0492506010810190505b6305f5e1008310613151576305f5e100838161314757613146614aa5565b5b0492506008810190505b612710831061317657612710838161316c5761316b614aa5565b5b0492506004810190505b60648310613199576064838161318f5761318e614aa5565b5b0492506002810190505b600a83106131a8576001810190505b80915050919050565b505050565b6008805490506009600083815260200190815260200160002081905550600881908060018154018082558091505060019003906000526020600020016000909190919091505550565b6000600161320c846111a4565b61321691906145ef565b90506000600760008481526020019081526020016000205490508181146132fb576000600660008673ffffffffffffffffffffffffffffffffffffffff1673ffffffffffffffffffffffffffffffffffffffff168152602001908152602001600020600084815260200190815260200160002054905080600660008773ffffffffffffffffffffffffffffffffffffffff1673ffffffffffffffffffffffffffffffffffffffff168152602001908152602001600020600084815260200190815260200160002081905550816007600083815260200190815260200160002081905550505b6007600084815260200190815260200160002060009055600660008573ffffffffffffffffffffffffffffffffffffffff1673ffffffffffffffffffffffffffffffffffffffff16815260200190815260200160002060008381526020019081526020016000206000905550505050565b6000600160088054905061338091906145ef565b90506000600960008481526020019081526020016000205490506000600883815481106133b0576133af614591565b5b9060005260206000200154905080600883815481106133d2576133d1614591565b5b90600052602060002001819055508160096000838152602001908152602001600020819055506009600085815260200190815260200160002060009055600880548061342157613420615239565b5b6001900381819060005260206000200160009055905550505050565b6000613448836111a4565b905081600660008573ffffffffffffffffffffffffffffffffffffffff1673ffffffffffffffffffffffffffffffffffffffff168152602001908152602001600020600083815260200190815260200160002081905550806007600084815260200190815260200160002081905550505050565b600073ffffffffffffffffffffffffffffffffffffffff168273ffffffffffffffffffffffffffffffffffffffff16141561352c576040517f08c379a0000000000000000000000000000000000000000000000000000000008152600401613523906152b4565b60405180910390fd5b61353581612401565b15613575576040517f08c379a000000000000000000000000000000000000000000000000000000000815260040161356c90615320565b60405180910390fd5b61358160008383612d67565b6001600360008473ffffffffffffffffffffffffffffffffffffffff1673ffffffffffffffffffffffffffffffffffffffff16815260200190815260200160002060008282546135d19190614f50565b92505081905550816002600083815260200190815260200160002060006101000a81548173ffffffffffffffffffffffffffffffffffffffff021916908373ffffffffffffffffffffffffffffffffffffffff160217905550808273ffffffffffffffffffffffffffffffffffffffff16600073ffffffffffffffffffffffffffffffffffffffff167fddf252ad1be2c89b69c2b068fc378daa952ba7f163c4a11628f55a4df523b3ef60405160405180910390a45050565b6000808273ffffffffffffffffffffffffffffffffffffffff163b119050919050565b6040518060e0016040528060008152602001600073ffffffffffffffffffffffffffffffffffffffff16815260200160008152602001606081526020016060815260200160608152602001600081525090565b82805461370c906141f3565b90600052602060002090601f01602090048101928261372e5760008555613775565b82601f1061374757805160ff1916838001178555613775565b82800160010185558215613775579182015b82811115613774578251825591602001919060010190613759565b5b5090506137829190613786565b5090565b5b8082111561379f576000816000905550600101613787565b5090565b6000604051905090565b600080fd5b600080fd5b60007fffffffff0000000000000000000000000000000000000000000000000000000082169050919050565b6137ec816137b7565b81146137f757600080fd5b50565b600081359050613809816137e3565b92915050565b600060208284031215613825576138246137ad565b5b6000613833848285016137fa565b91505092915050565b60008115159050919050565b6138518161383c565b82525050565b600060208201905061386c6000830184613848565b92915050565b6000819050919050565b61388581613872565b82525050565b60006020820190506138a0600083018461387c565b92915050565b600081519050919050565b600082825260208201905092915050565b60005b838110156138e05780820151818401526020810190506138c5565b838111156138ef576000848401525b50505050565b6000601f19601f8301169050919050565b6000613911826138a6565b61391b81856138b1565b935061392b8185602086016138c2565b613934816138f5565b840191505092915050565b600060208201905081810360008301526139598184613906565b905092915050565b61396a81613872565b811461397557600080fd5b50565b60008135905061398781613961565b92915050565b6000602082840312156139a3576139a26137ad565b5b60006139b184828501613978565b91505092915050565b600073ffffffffffffffffffffffffffffffffffffffff82169050919050565b60006139e5826139ba565b9050919050565b6139f5816139da565b82525050565b6000602082019050613a1060008301846139ec565b92915050565b613a1f816139da565b8114613a2a57600080fd5b50565b600081359050613a3c81613a16565b92915050565b60008060408385031215613a5957613a586137ad565b5b6000613a6785828601613a2d565b9250506020613a7885828601613978565b9150509250929050565b600080600060608486031215613a9b57613a9a6137ad565b5b6000613aa986828701613a2d565b9350506020613aba86828701613a2d565b9250506040613acb86828701613978565b9150509250925092565b600081519050919050565b600082825260208201905092915050565b6000819050602082019050919050565b613b0a81613872565b82525050565b613b19816139da565b82525050565b600082825260208201905092915050565b6000613b3b826138a6565b613b458185613b1f565b9350613b558185602086016138c2565b613b5e816138f5565b840191505092915050565b600060e083016000830151613b816000860182613b01565b506020830151613b946020860182613b10565b506040830151613ba76040860182613b01565b5060608301518482036060860152613bbf8282613b30565b91505060808301518482036080860152613bd98282613b30565b91505060a083015184820360a0860152613bf38282613b30565b91505060c0830151613c0860c0860182613b01565b508091505092915050565b6000613c1f8383613b69565b905092915050565b6000602082019050919050565b6000613c3f82613ad5565b613c498185613ae0565b935083602082028501613c5b85613af1565b8060005b85811015613c975784840389528151613c788582613c13565b9450613c8383613c27565b925060208a01995050600181019050613c5f565b50829750879550505050505092915050565b60006020820190508181036000830152613cc38184613c34565b905092915050565b600060e083016000830151613ce36000860182613b01565b506020830151613cf66020860182613b10565b506040830151613d096040860182613b01565b5060608301518482036060860152613d218282613b30565b91505060808301518482036080860152613d3b8282613b30565b91505060a083015184820360a0860152613d558282613b30565b91505060c0830151613d6a60c0860182613b01565b508091505092915050565b60006020820190508181036000830152613d8f8184613ccb565b905092915050565b600060208284031215613dad57613dac6137ad565b5b6000613dbb84828501613a2d565b91505092915050565b600080fd5b600080fd5b7f4e487b7100000000000000000000000000000000000000000000000000000000600052604160045260246000fd5b613e06826138f5565b810181811067ffffffffffffffff82111715613e2557613e24613dce565b5b80604052505050565b6000613e386137a3565b9050613e448282613dfd565b919050565b600067ffffffffffffffff821115613e6457613e63613dce565b5b613e6d826138f5565b9050602081019050919050565b82818337600083830152505050565b6000613e9c613e9784613e49565b613e2e565b905082815260208101848484011115613eb857613eb7613dc9565b5b613ec3848285613e7a565b509392505050565b600082601f830112613ee057613edf613dc4565b5b8135613ef0848260208601613e89565b91505092915050565b60008060008060808587031215613f1357613f126137ad565b5b600085013567ffffffffffffffff811115613f3157613f306137b2565b5b613f3d87828801613ecb565b945050602085013567ffffffffffffffff811115613f5e57613f5d6137b2565b5b613f6a87828801613ecb565b935050604085013567ffffffffffffffff811115613f8b57613f8a6137b2565b5b613f9787828801613ecb565b9250506060613fa887828801613978565b91505092959194509250565b613fbd8161383c565b8114613fc857600080fd5b50565b600081359050613fda81613fb4565b92915050565b60008060408385031215613ff757613ff66137ad565b5b600061400585828601613a2d565b925050602061401685828601613fcb565b9150509250929050565b60008060408385031215614037576140366137ad565b5b600061404585828601613978565b925050602061405685828601613978565b9150509250929050565b600067ffffffffffffffff82111561407b5761407a613dce565b5b614084826138f5565b9050602081019050919050565b60006140a461409f84614060565b613e2e565b9050828152602081018484840111156140c0576140bf613dc9565b5b6140cb848285613e7a565b509392505050565b600082601f8301126140e8576140e7613dc4565b5b81356140f8848260208601614091565b91505092915050565b6000806000806080858703121561411b5761411a6137ad565b5b600061412987828801613a2d565b945050602061413a87828801613a2d565b935050604061414b87828801613978565b925050606085013567ffffffffffffffff81111561416c5761416b6137b2565b5b614178878288016140d3565b91505092959194509250565b6000806040838503121561419b5761419a6137ad565b5b60006141a985828601613a2d565b92505060206141ba85828601613a2d565b9150509250929050565b7f4e487b7100000000000000000000000000000000000000000000000000000000600052602260045260246000fd5b6000600282049050600182168061420b57607f821691505b6020821081141561421f5761421e6141c4565b5b50919050565b7f4552433732313a20617070726f76656420717565727920666f72206e6f6e657860008201527f697374656e7420746f6b656e0000000000000000000000000000000000000000602082015250565b6000614281602c836138b1565b915061428c82614225565b604082019050919050565b600060208201905081810360008301526142b081614274565b9050919050565b7f4552433732313a20617070726f76616c20746f2063757272656e74206f776e6560008201527f7200000000000000000000000000000000000000000000000000000000000000602082015250565b60006143136021836138b1565b915061431e826142b7565b604082019050919050565b6000602082019050818103600083015261434281614306565b9050919050565b7f4552433732313a20617070726f76652063616c6c6572206973206e6f74206f7760008201527f6e6572206e6f7220617070726f76656420666f7220616c6c0000000000000000602082015250565b60006143a56038836138b1565b91506143b082614349565b604082019050919050565b600060208201905081810360008301526143d481614398565b9050919050565b7f4552433732313a207472616e736665722063616c6c6572206973206e6f74206f60008201527f776e6572206e6f7220617070726f766564000000000000000000000000000000602082015250565b60006144376031836138b1565b9150614442826143db565b604082019050919050565b600060208201905081810360008301526144668161442a565b9050919050565b7f455243373231456e756d657261626c653a206f776e657220696e646578206f7560008201527f74206f6620626f756e6473000000000000000000000000000000000000000000602082015250565b60006144c9602b836138b1565b91506144d48261446d565b604082019050919050565b600060208201905081810360008301526144f8816144bc565b9050919050565b7f455243373231456e756d657261626c653a20676c6f62616c20696e646578206f60008201527f7574206f6620626f756e64730000000000000000000000000000000000000000602082015250565b600061455b602c836138b1565b9150614566826144ff565b604082019050919050565b6000602082019050818103600083015261458a8161454e565b9050919050565b7f4e487b7100000000000000000000000000000000000000000000000000000000600052603260045260246000fd5b7f4e487b7100000000000000000000000000000000000000000000000000000000600052601160045260246000fd5b60006145fa82613872565b915061460583613872565b925082821015614618576146176145c0565b5b828203905092915050565b7f4552433732313a206f776e657220717565727920666f72206e6f6e657869737460008201527f656e7420746f6b656e0000000000000000000000000000000000000000000000602082015250565b600061467f6029836138b1565b915061468a82614623565b604082019050919050565b600060208201905081810360008301526146ae81614672565b9050919050565b7f4552433732313a2062616c616e636520717565727920666f7220746865207a6560008201527f726f206164647265737300000000000000000000000000000000000000000000602082015250565b6000614711602a836138b1565b915061471c826146b5565b604082019050919050565b6000602082019050818103600083015261474081614704565b9050919050565b7f457468657220746f6f206c6f7720666f72206d696e74696e6721000000000000600082015250565b600061477d601a836138b1565b915061478882614747565b602082019050919050565b600060208201905081810360008301526147ac81614770565b9050919050565b600081905092915050565b60006147c9826138a6565b6147d381856147b3565b93506147e38185602086016138c2565b80840191505092915050565b60006147fb82846147be565b915081905092915050565b7f54686973204e465420697320616c7265616479206d696e746564210000000000600082015250565b600061483c601b836138b1565b915061484782614806565b602082019050919050565b6000602082019050818103600083015261486b8161482f565b9050919050565b7f53616c6573206e6f7420616c6c6f776564210000000000000000000000000000600082015250565b60006148a86012836138b1565b91506148b382614872565b602082019050919050565b600060208201905081810360008301526148d78161489b565b9050919050565b60006148e982613872565b91507fffffffffffffffffffffffffffffffffffffffffffffffffffffffffffffffff82141561491c5761491b6145c0565b5b600182019050919050565b600060808201905061493c600083018761387c565b614949602083018661387c565b818103604083015261495b8185613906565b905061496a606083018461387c565b95945050505050565b7f457468657220746f6f206c6f7720666f72207075726368617365210000000000600082015250565b60006149a9601b836138b1565b91506149b482614973565b602082019050919050565b600060208201905081810360008301526149d88161499c565b9050919050565b7f4f7065726174696f6e204e6f7420416c6c6f7765642100000000000000000000600082015250565b6000614a156016836138b1565b9150614a20826149df565b602082019050919050565b60006020820190508181036000830152614a4481614a08565b9050919050565b6000614a5682613872565b9150614a6183613872565b9250817fffffffffffffffffffffffffffffffffffffffffffffffffffffffffffffffff0483118215151615614a9a57614a996145c0565b5b828202905092915050565b7f4e487b7100000000000000000000000000000000000000000000000000000000600052601260045260246000fd5b6000614adf82613872565b9150614aea83613872565b925082614afa57614af9614aa5565b5b828204905092915050565b60008190508160005260206000209050919050565b60008154614b27816141f3565b614b3181866138b1565b94506001821660008114614b4c5760018114614b5e57614b91565b60ff1983168652602086019350614b91565b614b6785614b05565b60005b83811015614b8957815481890152600182019150602081019050614b6a565b808801955050505b50505092915050565b6000608082019050614baf600083018761387c565b614bbc602083018661387c565b8181036040830152614bce8185614b1a565b9050614bdd606083018461387c565b95945050505050565b7f457468657220746f6f206c6f7721000000000000000000000000000000000000600082015250565b6000614c1c600e836138b1565b9150614c2782614be6565b602082019050919050565b60006020820190508181036000830152614c4b81614c0f565b9050919050565b7f4552433732314d657461646174613a2055524920717565727920666f72206e6f60008201527f6e6578697374656e7420746f6b656e0000000000000000000000000000000000602082015250565b6000614cae602f836138b1565b9150614cb982614c52565b604082019050919050565b60006020820190508181036000830152614cdd81614ca1565b9050919050565b6000614cf082856147be565b9150614cfc82846147be565b91508190509392505050565b7f4f776e61626c653a206e6577206f776e657220697320746865207a65726f206160008201527f6464726573730000000000000000000000000000000000000000000000000000602082015250565b6000614d646026836138b1565b9150614d6f82614d08565b604082019050919050565b60006020820190508181036000830152614d9381614d57565b9050919050565b7f4552433732313a206f70657261746f7220717565727920666f72206e6f6e657860008201527f697374656e7420746f6b656e0000000000000000000000000000000000000000602082015250565b6000614df6602c836138b1565b9150614e0182614d9a565b604082019050919050565b60006020820190508181036000830152614e2581614de9565b9050919050565b7f4552433732313a207472616e73666572206f6620746f6b656e2074686174206960008201527f73206e6f74206f776e0000000000000000000000000000000000000000000000602082015250565b6000614e886029836138b1565b9150614e9382614e2c565b604082019050919050565b60006020820190508181036000830152614eb781614e7b565b9050919050565b7f4552433732313a207472616e7366657220746f20746865207a65726f2061646460008201527f7265737300000000000000000000000000000000000000000000000000000000602082015250565b6000614f1a6024836138b1565b9150614f2582614ebe565b604082019050919050565b60006020820190508181036000830152614f4981614f0d565b9050919050565b6000614f5b82613872565b9150614f6683613872565b9250827fffffffffffffffffffffffffffffffffffffffffffffffffffffffffffffffff03821115614f9b57614f9a6145c0565b5b828201905092915050565b7f4f776e61626c653a2063616c6c6572206973206e6f7420746865206f776e6572600082015250565b6000614fdc6020836138b1565b9150614fe782614fa6565b602082019050919050565b6000602082019050818103600083015261500b81614fcf565b9050919050565b600081905092915050565b50565b600061502d600083615012565b91506150388261501d565b600082019050919050565b600061504e82615020565b9150819050919050565b7f4552433732313a20617070726f766520746f2063616c6c657200000000000000600082015250565b600061508e6019836138b1565b915061509982615058565b602082019050919050565b600060208201905081810360008301526150bd81615081565b9050919050565b7f4552433732313a207472616e7366657220746f206e6f6e20455243373231526560008201527f63656976657220696d706c656d656e7465720000000000000000000000000000602082015250565b60006151206032836138b1565b915061512b826150c4565b604082019050919050565b6000602082019050818103600083015261514f81615113565b9050919050565b600081519050919050565b600082825260208201905092915050565b600061517d82615156565b6151878185615161565b93506151978185602086016138c2565b6151a0816138f5565b840191505092915050565b60006080820190506151c060008301876139ec565b6151cd60208301866139ec565b6151da604083018561387c565b81810360608301526151ec8184615172565b905095945050505050565b600081519050615206816137e3565b92915050565b600060208284031215615222576152216137ad565b5b6000615230848285016151f7565b91505092915050565b7f4e487b7100000000000000000000000000000000000000000000000000000000600052603160045260246000fd5b7f4552433732313a206d696e7420746f20746865207a65726f2061646472657373600082015250565b600061529e6020836138b1565b91506152a982615268565b602082019050919050565b600060208201905081810360008301526152cd81615291565b9050919050565b7f4552433732313a20746f6b656e20616c7265616479206d696e74656400000000600082015250565b600061530a601c836138b1565b9150615315826152d4565b602082019050919050565b60006020820190508181036000830152615339816152fd565b905091905056fea26469706673582212205e43c8a0ac1e7345b4b7ce9b08d50e435e0b0ad8fdd63e12fc7a28beae5ece8d64736f6c634300080b0033",
  "immutableReferences": {},
  "source": "// SPDX-License-Identifier: MIT\r\npragma solidity >=0.7.0 <0.9.0;\r\n\r\nimport \"./ERC721.sol\";\r\nimport \"./ERC721Enumerable.sol\";\r\nimport \"@openzeppelin/contracts/access/Ownable.sol\";\r\n\r\ncontract TimelessNFT is ERC721Enumerable, Ownable {\r\n    using Strings for uint256;\r\n    mapping(string => uint8) existingURIs;\r\n    mapping(uint256 => address) public holderOf;\r\n\r\n    address public artist;\r\n    uint256 public royalityFee;\r\n    uint256 public supply = 0;\r\n    uint256 public totalTx = 0;\r\n    uint256 public cost = 0.01 ether;\r\n\r\n    event Sale(\r\n        uint256 id,\r\n        address indexed owner,\r\n        uint256 cost,\r\n        string metadataURI,\r\n        uint256 timestamp\r\n    );\r\n\r\n    struct TransactionStruct {\r\n        uint256 id;\r\n        address owner;\r\n        uint256 cost;\r\n        string title;\r\n        string description;\r\n        string metadataURI;\r\n        uint256 timestamp;\r\n    }\r\n\r\n    TransactionStruct[] transactions;\r\n    TransactionStruct[] minted;\r\n\r\n    constructor(\r\n        string memory _name,\r\n        string memory _symbol,\r\n        uint256 _royalityFee\r\n    )\r\n        // address _artist\r\n        ERC721(_name, _symbol)\r\n    {\r\n        royalityFee = _royalityFee;\r\n        // artist = _artist;\r\n    }\r\n\r\n    function payToMint(\r\n        string memory title,\r\n        string memory description,\r\n        string memory metadataURI,\r\n        uint256 salesPrice\r\n    ) external payable {\r\n        require(msg.value >= cost, \"Ether too low for minting!\");\r\n        require(existingURIs[metadataURI] == 0, \"This NFT is already minted!\");\r\n        require(msg.sender != owner(), \"Sales not allowed!\");\r\n\r\n        // uint256 royality = (msg.value * royalityFee) / 100;\r\n        // payTo(artist, royality);\r\n        payTo(owner(), msg.value);\r\n\r\n        supply++;\r\n\r\n        minted.push(\r\n            TransactionStruct(\r\n                supply,\r\n                msg.sender,\r\n                salesPrice,\r\n                title,\r\n                description,\r\n                metadataURI,\r\n                block.timestamp\r\n            )\r\n        );\r\n\r\n        emit Sale(supply, msg.sender, msg.value, metadataURI, block.timestamp);\r\n\r\n        _safeMint(msg.sender, supply);\r\n        existingURIs[metadataURI] = 1;\r\n        holderOf[supply] = msg.sender;\r\n    }\r\n\r\n    function payToBuy(uint256 id) external payable {\r\n        require(\r\n            msg.value >= minted[id - 1].cost,\r\n            \"Ether too low for purchase!\"\r\n        );\r\n        require(msg.sender != minted[id - 1].owner, \"Operation Not Allowed!\");\r\n\r\n        uint256 royality = (msg.value * royalityFee) / 100;\r\n        payTo(owner(), royality);\r\n        payTo(minted[id - 1].owner, (msg.value - royality));\r\n\r\n        totalTx++;\r\n\r\n        transactions.push(\r\n            TransactionStruct(\r\n                totalTx,\r\n                msg.sender,\r\n                msg.value,\r\n                minted[id - 1].title,\r\n                minted[id - 1].description,\r\n                minted[id - 1].metadataURI,\r\n                block.timestamp\r\n            )\r\n        );\r\n\r\n        emit Sale(\r\n            totalTx,\r\n            msg.sender,\r\n            msg.value,\r\n            minted[id - 1].metadataURI,\r\n            block.timestamp\r\n        );\r\n\r\n        minted[id - 1].owner = msg.sender;\r\n    }\r\n\r\n    function changePrice(uint256 id, uint256 newPrice) external returns (bool) {\r\n        require(newPrice > 0 ether, \"Ether too low!\");\r\n        require(msg.sender == minted[id - 1].owner, \"Operation Not Allowed!\");\r\n        minted[id - 1].cost = newPrice;\r\n        return true;\r\n    }\r\n\r\n    function getAllNFTs() external view returns (TransactionStruct[] memory) {\r\n        return minted;\r\n    }\r\n\r\n    function getNFT(uint256 id)\r\n        external\r\n        view\r\n        returns (TransactionStruct memory)\r\n    {\r\n        return minted[id - 1];\r\n    }\r\n\r\n    function getAllTransactions()\r\n        external\r\n        view\r\n        returns (TransactionStruct[] memory)\r\n    {\r\n        return transactions;\r\n    }\r\n\r\n    function payTo(address to, uint256 amount) internal {\r\n        (bool success, ) = payable(to).call{value: amount}(\"\");\r\n        require(success);\r\n    }\r\n}\r\n",
  "sourcePath": "F:\\Pentest Document\\Development\\Blockchain\\Dapps\\NFT Marketplace\\timelessNFT\\src\\contracts\\TimelessNFT.sol",
  "compiler": {
    "name": "solc",
    "version": "0.8.11+commit.d7f03943.Emscripten.clang"
  },
  "schemaVersion": "3.4.11",
  "updatedAt": "2023-02-15T08:13:46.655Z",
  "networkType": "ethereum",
  "devdoc": {
    "kind": "dev",
    "methods": {
      "approve(address,uint256)": {
        "details": "See {IERC721-approve}."
      },
      "balanceOf(address)": {
        "details": "See {IERC721-balanceOf}."
      },
      "getApproved(uint256)": {
        "details": "See {IERC721-getApproved}."
      },
      "isApprovedForAll(address,address)": {
        "details": "See {IERC721-isApprovedForAll}."
      },
      "name()": {
        "details": "See {IERC721Metadata-name}."
      },
      "owner()": {
        "details": "Returns the address of the current owner."
      },
      "ownerOf(uint256)": {
        "details": "See {IERC721-ownerOf}."
      },
      "renounceOwnership()": {
        "details": "Leaves the contract without owner. It will not be possible to call `onlyOwner` functions anymore. Can only be called by the current owner. NOTE: Renouncing ownership will leave the contract without an owner, thereby removing any functionality that is only available to the owner."
      },
      "safeTransferFrom(address,address,uint256)": {
        "details": "See {IERC721-safeTransferFrom}."
      },
      "safeTransferFrom(address,address,uint256,bytes)": {
        "details": "See {IERC721-safeTransferFrom}."
      },
      "setApprovalForAll(address,bool)": {
        "details": "See {IERC721-setApprovalForAll}."
      },
      "supportsInterface(bytes4)": {
        "details": "See {IERC165-supportsInterface}."
      },
      "symbol()": {
        "details": "See {IERC721Metadata-symbol}."
      },
      "tokenByIndex(uint256)": {
        "details": "See {IERC721Enumerable-tokenByIndex}."
      },
      "tokenOfOwnerByIndex(address,uint256)": {
        "details": "See {IERC721Enumerable-tokenOfOwnerByIndex}."
      },
      "tokenURI(uint256)": {
        "details": "See {IERC721Metadata-tokenURI}."
      },
      "totalSupply()": {
        "details": "See {IERC721Enumerable-totalSupply}."
      },
      "transferFrom(address,address,uint256)": {
        "details": "See {IERC721-transferFrom}."
      },
      "transferOwnership(address)": {
        "details": "Transfers ownership of the contract to a new account (`newOwner`). Can only be called by the current owner."
      }
    },
    "version": 1
  },
  "userdoc": {
    "kind": "user",
    "methods": {},
    "version": 1
  }
}